{
  "_format": "hh-sol-artifact-1",
  "contractName": "Controller",
  "sourceName": "contracts/Controller.sol",
  "abi": [
    {
      "inputs": [
        {
          "internalType": "bytes32",
          "name": "operationId",
          "type": "bytes32"
        }
      ],
      "name": "AccessManagerAlreadyScheduled",
      "type": "error"
    },
    {
      "inputs": [],
      "name": "AccessManagerBadConfirmation",
      "type": "error"
    },
    {
      "inputs": [
        {
          "internalType": "bytes32",
          "name": "operationId",
          "type": "bytes32"
        }
      ],
      "name": "AccessManagerExpired",
      "type": "error"
    },
    {
      "inputs": [
        {
          "internalType": "address",
          "name": "initialAdmin",
          "type": "address"
        }
      ],
      "name": "AccessManagerInvalidInitialAdmin",
      "type": "error"
    },
    {
      "inputs": [
        {
          "internalType": "address",
          "name": "account",
          "type": "address"
        }
      ],
      "name": "AccessManagerLockedAccount",
      "type": "error"
    },
    {
      "inputs": [
        {
          "internalType": "uint64",
          "name": "roleId",
          "type": "uint64"
        }
      ],
      "name": "AccessManagerLockedRole",
      "type": "error"
    },
    {
      "inputs": [
        {
          "internalType": "bytes32",
          "name": "operationId",
          "type": "bytes32"
        }
      ],
      "name": "AccessManagerNotReady",
      "type": "error"
    },
    {
      "inputs": [
        {
          "internalType": "bytes32",
          "name": "operationId",
          "type": "bytes32"
        }
      ],
      "name": "AccessManagerNotScheduled",
      "type": "error"
    },
    {
      "inputs": [
        {
          "internalType": "address",
          "name": "msgsender",
          "type": "address"
        },
        {
          "internalType": "uint64",
          "name": "roleId",
          "type": "uint64"
        }
      ],
      "name": "AccessManagerUnauthorizedAccount",
      "type": "error"
    },
    {
      "inputs": [
        {
          "internalType": "address",
          "name": "caller",
          "type": "address"
        },
        {
          "internalType": "address",
          "name": "target",
          "type": "address"
        },
        {
          "internalType": "bytes4",
          "name": "selector",
          "type": "bytes4"
        }
      ],
      "name": "AccessManagerUnauthorizedCall",
      "type": "error"
    },
    {
      "inputs": [
        {
          "internalType": "address",
          "name": "msgsender",
          "type": "address"
        },
        {
          "internalType": "address",
          "name": "caller",
          "type": "address"
        },
        {
          "internalType": "address",
          "name": "target",
          "type": "address"
        },
        {
          "internalType": "bytes4",
          "name": "selector",
          "type": "bytes4"
        }
      ],
      "name": "AccessManagerUnauthorizedCancel",
      "type": "error"
    },
    {
      "inputs": [
        {
          "internalType": "address",
          "name": "target",
          "type": "address"
        }
      ],
      "name": "AccessManagerUnauthorizedConsume",
      "type": "error"
    },
    {
      "inputs": [
        {
          "internalType": "address",
          "name": "target",
          "type": "address"
        }
      ],
      "name": "AddressEmptyCode",
      "type": "error"
    },
    {
      "inputs": [
        {
          "internalType": "address",
          "name": "account",
          "type": "address"
        }
      ],
      "name": "AddressInsufficientBalance",
      "type": "error"
    },
    {
      "inputs": [],
      "name": "FailedInnerCall",
      "type": "error"
    },
    {
      "inputs": [],
      "name": "InvalidInitialization",
      "type": "error"
    },
    {
      "inputs": [],
      "name": "NotInitializing",
      "type": "error"
    },
    {
      "inputs": [
        {
          "internalType": "uint8",
          "name": "bits",
          "type": "uint8"
        },
        {
          "internalType": "uint256",
          "name": "value",
          "type": "uint256"
        }
      ],
      "name": "SafeCastOverflowedUintDowncast",
      "type": "error"
    },
    {
      "anonymous": false,
      "inputs": [
        {
          "indexed": false,
          "internalType": "uint64",
          "name": "version",
          "type": "uint64"
        }
      ],
      "name": "Initialized",
      "type": "event"
    },
    {
      "anonymous": false,
      "inputs": [
        {
          "indexed": true,
          "internalType": "bytes32",
          "name": "operationId",
          "type": "bytes32"
        },
        {
          "indexed": true,
          "internalType": "uint32",
          "name": "nonce",
          "type": "uint32"
        }
      ],
      "name": "OperationCanceled",
      "type": "event"
    },
    {
      "anonymous": false,
      "inputs": [
        {
          "indexed": true,
          "internalType": "bytes32",
          "name": "operationId",
          "type": "bytes32"
        },
        {
          "indexed": true,
          "internalType": "uint32",
          "name": "nonce",
          "type": "uint32"
        }
      ],
      "name": "OperationExecuted",
      "type": "event"
    },
    {
      "anonymous": false,
      "inputs": [
        {
          "indexed": true,
          "internalType": "bytes32",
          "name": "operationId",
          "type": "bytes32"
        },
        {
          "indexed": true,
          "internalType": "uint32",
          "name": "nonce",
          "type": "uint32"
        },
        {
          "indexed": false,
          "internalType": "uint48",
          "name": "schedule",
          "type": "uint48"
        },
        {
          "indexed": false,
          "internalType": "address",
          "name": "caller",
          "type": "address"
        },
        {
          "indexed": false,
          "internalType": "address",
          "name": "target",
          "type": "address"
        },
        {
          "indexed": false,
          "internalType": "bytes",
          "name": "data",
          "type": "bytes"
        }
      ],
      "name": "OperationScheduled",
      "type": "event"
    },
    {
      "anonymous": false,
      "inputs": [
        {
          "indexed": true,
          "internalType": "uint64",
          "name": "roleId",
          "type": "uint64"
        },
        {
          "indexed": true,
          "internalType": "uint64",
          "name": "admin",
          "type": "uint64"
        }
      ],
      "name": "RoleAdminChanged",
      "type": "event"
    },
    {
      "anonymous": false,
      "inputs": [
        {
          "indexed": true,
          "internalType": "uint64",
          "name": "roleId",
          "type": "uint64"
        },
        {
          "indexed": false,
          "internalType": "uint32",
          "name": "delay",
          "type": "uint32"
        },
        {
          "indexed": false,
          "internalType": "uint48",
          "name": "since",
          "type": "uint48"
        }
      ],
      "name": "RoleGrantDelayChanged",
      "type": "event"
    },
    {
      "anonymous": false,
      "inputs": [
        {
          "indexed": true,
          "internalType": "uint64",
          "name": "roleId",
          "type": "uint64"
        },
        {
          "indexed": true,
          "internalType": "address",
          "name": "account",
          "type": "address"
        },
        {
          "indexed": false,
          "internalType": "uint32",
          "name": "delay",
          "type": "uint32"
        },
        {
          "indexed": false,
          "internalType": "uint48",
          "name": "since",
          "type": "uint48"
        },
        {
          "indexed": false,
          "internalType": "bool",
          "name": "newMember",
          "type": "bool"
        }
      ],
      "name": "RoleGranted",
      "type": "event"
    },
    {
      "anonymous": false,
      "inputs": [
        {
          "indexed": true,
          "internalType": "uint64",
          "name": "roleId",
          "type": "uint64"
        },
        {
          "indexed": true,
          "internalType": "uint64",
          "name": "guardian",
          "type": "uint64"
        }
      ],
      "name": "RoleGuardianChanged",
      "type": "event"
    },
    {
      "anonymous": false,
      "inputs": [
        {
          "indexed": true,
          "internalType": "uint64",
          "name": "roleId",
          "type": "uint64"
        },
        {
          "indexed": false,
          "internalType": "string",
          "name": "label",
          "type": "string"
        }
      ],
      "name": "RoleLabel",
      "type": "event"
    },
    {
      "anonymous": false,
      "inputs": [
        {
          "indexed": true,
          "internalType": "uint64",
          "name": "roleId",
          "type": "uint64"
        },
        {
          "indexed": true,
          "internalType": "address",
          "name": "account",
          "type": "address"
        }
      ],
      "name": "RoleRevoked",
      "type": "event"
    },
    {
      "anonymous": false,
      "inputs": [
        {
          "indexed": true,
          "internalType": "address",
          "name": "target",
          "type": "address"
        },
        {
          "indexed": false,
          "internalType": "uint32",
          "name": "delay",
          "type": "uint32"
        },
        {
          "indexed": false,
          "internalType": "uint48",
          "name": "since",
          "type": "uint48"
        }
      ],
      "name": "TargetAdminDelayUpdated",
      "type": "event"
    },
    {
      "anonymous": false,
      "inputs": [
        {
          "indexed": true,
          "internalType": "address",
          "name": "target",
          "type": "address"
        },
        {
          "indexed": false,
          "internalType": "bool",
          "name": "closed",
          "type": "bool"
        }
      ],
      "name": "TargetClosed",
      "type": "event"
    },
    {
      "anonymous": false,
      "inputs": [
        {
          "indexed": true,
          "internalType": "address",
          "name": "target",
          "type": "address"
        },
        {
          "indexed": false,
          "internalType": "bytes4",
          "name": "selector",
          "type": "bytes4"
        },
        {
          "indexed": true,
          "internalType": "uint64",
          "name": "roleId",
          "type": "uint64"
        }
      ],
      "name": "TargetFunctionRoleUpdated",
      "type": "event"
    },
    {
      "inputs": [],
      "name": "ADMIN_ROLE",
      "outputs": [
        {
          "internalType": "uint64",
          "name": "",
          "type": "uint64"
        }
      ],
      "stateMutability": "view",
      "type": "function"
    },
    {
      "inputs": [],
      "name": "PUBLIC_ROLE",
      "outputs": [
        {
          "internalType": "uint64",
          "name": "",
          "type": "uint64"
        }
      ],
      "stateMutability": "view",
      "type": "function"
    },
    {
      "inputs": [],
      "name": "VERSION",
      "outputs": [
        {
          "internalType": "string",
          "name": "",
          "type": "string"
        }
      ],
      "stateMutability": "view",
      "type": "function"
    },
    {
      "inputs": [
        {
          "internalType": "address",
          "name": "caller",
          "type": "address"
        },
        {
          "internalType": "address",
          "name": "target",
          "type": "address"
        },
        {
          "internalType": "bytes4",
          "name": "selector",
          "type": "bytes4"
        }
      ],
      "name": "canCall",
      "outputs": [
        {
          "internalType": "bool",
          "name": "immediate",
          "type": "bool"
        },
        {
          "internalType": "uint32",
          "name": "delay",
          "type": "uint32"
        }
      ],
      "stateMutability": "view",
      "type": "function"
    },
    {
      "inputs": [
        {
          "internalType": "address",
          "name": "caller",
          "type": "address"
        },
        {
          "internalType": "address",
          "name": "target",
          "type": "address"
        },
        {
          "internalType": "bytes",
          "name": "data",
          "type": "bytes"
        }
      ],
      "name": "cancel",
      "outputs": [
        {
          "internalType": "uint32",
          "name": "",
          "type": "uint32"
        }
      ],
      "stateMutability": "nonpayable",
      "type": "function"
    },
    {
      "inputs": [
        {
          "internalType": "address",
          "name": "caller",
          "type": "address"
        },
        {
          "internalType": "bytes",
          "name": "data",
          "type": "bytes"
        }
      ],
      "name": "consumeScheduledOp",
      "outputs": [],
      "stateMutability": "nonpayable",
      "type": "function"
    },
    {
      "inputs": [
        {
          "internalType": "address",
          "name": "target",
          "type": "address"
        },
        {
          "internalType": "bytes",
          "name": "data",
          "type": "bytes"
        }
      ],
      "name": "execute",
      "outputs": [
        {
          "internalType": "uint32",
          "name": "",
          "type": "uint32"
        }
      ],
      "stateMutability": "payable",
      "type": "function"
    },
    {
      "inputs": [],
      "name": "expiration",
      "outputs": [
        {
          "internalType": "uint32",
          "name": "",
          "type": "uint32"
        }
      ],
      "stateMutability": "view",
      "type": "function"
    },
    {
      "inputs": [
        {
          "internalType": "uint64",
          "name": "roleId",
          "type": "uint64"
        },
        {
          "internalType": "address",
          "name": "account",
          "type": "address"
        }
      ],
      "name": "getAccess",
      "outputs": [
        {
          "internalType": "uint48",
          "name": "since",
          "type": "uint48"
        },
        {
          "internalType": "uint32",
          "name": "currentDelay",
          "type": "uint32"
        },
        {
          "internalType": "uint32",
          "name": "pendingDelay",
          "type": "uint32"
        },
        {
          "internalType": "uint48",
          "name": "effect",
          "type": "uint48"
        }
      ],
      "stateMutability": "view",
      "type": "function"
    },
    {
      "inputs": [
        {
          "internalType": "bytes32",
          "name": "id",
          "type": "bytes32"
        }
      ],
      "name": "getNonce",
      "outputs": [
        {
          "internalType": "uint32",
          "name": "",
          "type": "uint32"
        }
      ],
      "stateMutability": "view",
      "type": "function"
    },
    {
      "inputs": [
        {
          "internalType": "uint64",
          "name": "roleId",
          "type": "uint64"
        }
      ],
      "name": "getRoleAdmin",
      "outputs": [
        {
          "internalType": "uint64",
          "name": "",
          "type": "uint64"
        }
      ],
      "stateMutability": "view",
      "type": "function"
    },
    {
      "inputs": [
        {
          "internalType": "uint64",
          "name": "roleId",
          "type": "uint64"
        }
      ],
      "name": "getRoleGrantDelay",
      "outputs": [
        {
          "internalType": "uint32",
          "name": "",
          "type": "uint32"
        }
      ],
      "stateMutability": "view",
      "type": "function"
    },
    {
      "inputs": [
        {
          "internalType": "uint64",
          "name": "roleId",
          "type": "uint64"
        }
      ],
      "name": "getRoleGuardian",
      "outputs": [
        {
          "internalType": "uint64",
          "name": "",
          "type": "uint64"
        }
      ],
      "stateMutability": "view",
      "type": "function"
    },
    {
      "inputs": [
        {
          "internalType": "bytes32",
          "name": "id",
          "type": "bytes32"
        }
      ],
      "name": "getSchedule",
      "outputs": [
        {
          "internalType": "uint48",
          "name": "",
          "type": "uint48"
        }
      ],
      "stateMutability": "view",
      "type": "function"
    },
    {
      "inputs": [
        {
          "internalType": "address",
          "name": "target",
          "type": "address"
        }
      ],
      "name": "getTargetAdminDelay",
      "outputs": [
        {
          "internalType": "uint32",
          "name": "",
          "type": "uint32"
        }
      ],
      "stateMutability": "view",
      "type": "function"
    },
    {
      "inputs": [
        {
          "internalType": "address",
          "name": "target",
          "type": "address"
        },
        {
          "internalType": "bytes4",
          "name": "selector",
          "type": "bytes4"
        }
      ],
      "name": "getTargetFunctionRole",
      "outputs": [
        {
          "internalType": "uint64",
          "name": "",
          "type": "uint64"
        }
      ],
      "stateMutability": "view",
      "type": "function"
    },
    {
      "inputs": [
        {
          "internalType": "uint64",
          "name": "roleId",
          "type": "uint64"
        },
        {
          "internalType": "address",
          "name": "account",
          "type": "address"
        },
        {
          "internalType": "uint32",
          "name": "executionDelay",
          "type": "uint32"
        }
      ],
      "name": "grantRole",
      "outputs": [],
      "stateMutability": "nonpayable",
      "type": "function"
    },
    {
      "inputs": [
        {
          "internalType": "uint64",
          "name": "roleId",
          "type": "uint64"
        },
        {
          "internalType": "address",
          "name": "account",
          "type": "address"
        }
      ],
      "name": "hasRole",
      "outputs": [
        {
          "internalType": "bool",
          "name": "isMember",
          "type": "bool"
        },
        {
          "internalType": "uint32",
          "name": "executionDelay",
          "type": "uint32"
        }
      ],
      "stateMutability": "view",
      "type": "function"
    },
    {
      "inputs": [
        {
          "internalType": "address",
          "name": "caller",
          "type": "address"
        },
        {
          "internalType": "address",
          "name": "target",
          "type": "address"
        },
        {
          "internalType": "bytes",
          "name": "data",
          "type": "bytes"
        }
      ],
      "name": "hashOperation",
      "outputs": [
        {
          "internalType": "bytes32",
          "name": "",
          "type": "bytes32"
        }
      ],
      "stateMutability": "view",
      "type": "function"
    },
    {
      "inputs": [
        {
          "internalType": "address",
          "name": "initialAdmin",
          "type": "address"
        }
      ],
      "name": "initialize",
      "outputs": [],
      "stateMutability": "nonpayable",
      "type": "function"
    },
    {
      "inputs": [
        {
          "internalType": "address",
          "name": "target",
          "type": "address"
        }
      ],
      "name": "isTargetClosed",
      "outputs": [
        {
          "internalType": "bool",
          "name": "",
          "type": "bool"
        }
      ],
      "stateMutability": "view",
      "type": "function"
    },
    {
      "inputs": [
        {
          "internalType": "uint64",
          "name": "roleId",
          "type": "uint64"
        },
        {
          "internalType": "string",
          "name": "label",
          "type": "string"
        }
      ],
      "name": "labelRole",
      "outputs": [],
      "stateMutability": "nonpayable",
      "type": "function"
    },
    {
      "inputs": [],
      "name": "minSetback",
      "outputs": [
        {
          "internalType": "uint32",
          "name": "",
          "type": "uint32"
        }
      ],
      "stateMutability": "view",
      "type": "function"
    },
    {
      "inputs": [
        {
          "internalType": "bytes[]",
          "name": "data",
          "type": "bytes[]"
        }
      ],
      "name": "multicall",
      "outputs": [
        {
          "internalType": "bytes[]",
          "name": "results",
          "type": "bytes[]"
        }
      ],
      "stateMutability": "nonpayable",
      "type": "function"
    },
    {
      "inputs": [
        {
          "internalType": "uint64",
          "name": "roleId",
          "type": "uint64"
        },
        {
          "internalType": "address",
          "name": "callerConfirmation",
          "type": "address"
        }
      ],
      "name": "renounceRole",
      "outputs": [],
      "stateMutability": "nonpayable",
      "type": "function"
    },
    {
      "inputs": [
        {
          "internalType": "uint64",
          "name": "roleId",
          "type": "uint64"
        },
        {
          "internalType": "address",
          "name": "account",
          "type": "address"
        }
      ],
      "name": "revokeRole",
      "outputs": [],
      "stateMutability": "nonpayable",
      "type": "function"
    },
    {
      "inputs": [
        {
          "internalType": "address",
          "name": "target",
          "type": "address"
        },
        {
          "internalType": "bytes",
          "name": "data",
          "type": "bytes"
        },
        {
          "internalType": "uint48",
          "name": "when",
          "type": "uint48"
        }
      ],
      "name": "schedule",
      "outputs": [
        {
          "internalType": "bytes32",
          "name": "operationId",
          "type": "bytes32"
        },
        {
          "internalType": "uint32",
          "name": "nonce",
          "type": "uint32"
        }
      ],
      "stateMutability": "nonpayable",
      "type": "function"
    },
    {
      "inputs": [
        {
          "internalType": "uint64",
          "name": "roleId",
          "type": "uint64"
        },
        {
          "internalType": "uint32",
          "name": "newDelay",
          "type": "uint32"
        }
      ],
      "name": "setGrantDelay",
      "outputs": [],
      "stateMutability": "nonpayable",
      "type": "function"
    },
    {
      "inputs": [
        {
          "internalType": "uint64",
          "name": "roleId",
          "type": "uint64"
        },
        {
          "internalType": "uint64",
          "name": "admin",
          "type": "uint64"
        }
      ],
      "name": "setRoleAdmin",
      "outputs": [],
      "stateMutability": "nonpayable",
      "type": "function"
    },
    {
      "inputs": [
        {
          "internalType": "uint64",
          "name": "roleId",
          "type": "uint64"
        },
        {
          "internalType": "uint64",
          "name": "guardian",
          "type": "uint64"
        }
      ],
      "name": "setRoleGuardian",
      "outputs": [],
      "stateMutability": "nonpayable",
      "type": "function"
    },
    {
      "inputs": [
        {
          "internalType": "address",
          "name": "target",
          "type": "address"
        },
        {
          "internalType": "uint32",
          "name": "newDelay",
          "type": "uint32"
        }
      ],
      "name": "setTargetAdminDelay",
      "outputs": [],
      "stateMutability": "nonpayable",
      "type": "function"
    },
    {
      "inputs": [
        {
          "internalType": "address",
          "name": "target",
          "type": "address"
        },
        {
          "internalType": "bool",
          "name": "closed",
          "type": "bool"
        }
      ],
      "name": "setTargetClosed",
      "outputs": [],
      "stateMutability": "nonpayable",
      "type": "function"
    },
    {
      "inputs": [
        {
          "internalType": "address",
          "name": "target",
          "type": "address"
        },
        {
          "internalType": "bytes4[]",
          "name": "selectors",
          "type": "bytes4[]"
        },
        {
          "internalType": "uint64",
          "name": "roleId",
          "type": "uint64"
        }
      ],
      "name": "setTargetFunctionRole",
      "outputs": [],
      "stateMutability": "nonpayable",
      "type": "function"
    },
    {
      "inputs": [
        {
          "internalType": "address",
          "name": "target",
          "type": "address"
        },
        {
          "internalType": "address",
          "name": "newAuthority",
          "type": "address"
        }
      ],
      "name": "updateAuthority",
      "outputs": [],
      "stateMutability": "nonpayable",
      "type": "function"
    }
  ],
  "bytecode": "0x608060405234801561001057600080fd5b50614b8e806100206000396000f3fe6080604052600436106101f95760003560e01c806375b238fc1161010d578063b7d2b162116100a0578063d22b59891161006f578063d22b5989146107bb578063d6bb62c6146107e4578063f801a69814610821578063fe0776f51461085f578063ffa1ad7414610888576101f9565b8063b7d2b16214610700578063c4d66de814610729578063cc1b6c8114610752578063d1f856ee1461077d576101f9565b8063a64d95ce116100dc578063a64d95ce1461061f578063abd9bd2a14610648578063ac9650d814610685578063b7009613146106c2576101f9565b806375b238fc14610565578063853551b81461059057806394c7d7ee146105b9578063a166aa89146105e2576101f9565b806330cae187116101905780634665096d1161015f5780634665096d1461045a5780634c1da1e21461048557806352962952146104c2578063530dd456146104eb5780636d5115bd14610528576101f9565b806330cae1871461038c5780633adc277a146103b55780633ca7c02a146103f25780634136a33c1461041d576101f9565b806318ff183c116101cc57806318ff183c146102ca5780631cff79cd146102f357806325c471a0146103235780633078f1141461034c576101f9565b806308d6122d146101fe5780630b0a93ba1461022757806312be872714610264578063167bd395146102a1575b600080fd5b34801561020a57600080fd5b50610225600480360381019061022091906138fb565b6108b3565b005b34801561023357600080fd5b5061024e6004803603810190610249919061396f565b61090d565b60405161025b91906139ab565b60405180910390f35b34801561027057600080fd5b5061028b6004803603810190610286919061396f565b610963565b60405161029891906139e5565b60405180910390f35b3480156102ad57600080fd5b506102c860048036038101906102c39190613a38565b6109d7565b005b3480156102d657600080fd5b506102f160048036038101906102ec9190613a78565b6109ed565b005b61030d60048036038101906103089190613b0e565b610a64565b60405161031a91906139e5565b60405180910390f35b34801561032f57600080fd5b5061034a60048036038101906103459190613b9a565b610bca565b005b34801561035857600080fd5b50610373600480360381019061036e9190613bed565b610bec565b6040516103839493929190613c4e565b60405180910390f35b34801561039857600080fd5b506103b360048036038101906103ae9190613c93565b610cd2565b005b3480156103c157600080fd5b506103dc60048036038101906103d79190613d09565b610ce8565b6040516103e99190613d36565b60405180910390f35b3480156103fe57600080fd5b50610407610d43565b60405161041491906139ab565b60405180910390f35b34801561042957600080fd5b50610444600480360381019061043f9190613d09565b610d4f565b60405161045191906139e5565b60405180910390f35b34801561046657600080fd5b5061046f610d8d565b60405161047c91906139e5565b60405180910390f35b34801561049157600080fd5b506104ac60048036038101906104a79190613d51565b610d98565b6040516104b991906139e5565b60405180910390f35b3480156104ce57600080fd5b506104e960048036038101906104e49190613c93565b610e24565b005b3480156104f757600080fd5b50610512600480360381019061050d919061396f565b610e3a565b60405161051f91906139ab565b60405180910390f35b34801561053457600080fd5b5061054f600480360381019061054a9190613dd6565b610e90565b60405161055c91906139ab565b60405180910390f35b34801561057157600080fd5b5061057a610f4e565b60405161058791906139ab565b60405180910390f35b34801561059c57600080fd5b506105b760048036038101906105b29190613e6c565b610f53565b005b3480156105c557600080fd5b506105e060048036038101906105db9190613b0e565b61101c565b005b3480156105ee57600080fd5b5061060960048036038101906106049190613d51565b61113a565b6040516106169190613edb565b60405180910390f35b34801561062b57600080fd5b5061064660048036038101906106419190613ef6565b6111a1565b005b34801561065457600080fd5b5061066f600480360381019061066a9190613f36565b6111b7565b60405161067c9190613fb9565b60405180910390f35b34801561069157600080fd5b506106ac60048036038101906106a7919061402a565b6111f0565b6040516106b991906141c9565b60405180910390f35b3480156106ce57600080fd5b506106e960048036038101906106e491906141eb565b6113d4565b6040516106f792919061423e565b60405180910390f35b34801561070c57600080fd5b5061072760048036038101906107229190613bed565b611481565b005b34801561073557600080fd5b50610750600480360381019061074b9190613d51565b611498565b005b34801561075e57600080fd5b50610767611627565b60405161077491906139e5565b60405180910390f35b34801561078957600080fd5b506107a4600480360381019061079f9190613bed565b611632565b6040516107b292919061423e565b60405180910390f35b3480156107c757600080fd5b506107e260048036038101906107dd9190614267565b6116af565b005b3480156107f057600080fd5b5061080b60048036038101906108069190613f36565b6116c5565b60405161081891906139e5565b60405180910390f35b34801561082d57600080fd5b50610848600480360381019061084391906142d3565b6118cb565b604051610856929190614347565b60405180910390f35b34801561086b57600080fd5b5061088660048036038101906108819190613bed565b611ac2565b005b34801561089457600080fd5b5061089d611b3d565b6040516108aa91906143c5565b60405180910390f35b6108bb611b76565b60005b83839050811015610906576108fb858585848181106108e0576108df6143e7565b5b90506020020160208101906108f59190614416565b84611c23565b8060010190506108be565b5050505050565b600080610918611d48565b90508060010160008467ffffffffffffffff1667ffffffffffffffff16815260200190815260200160002060010160089054906101000a900467ffffffffffffffff16915050919050565b60008061096e611d48565b90506109cf8160010160008567ffffffffffffffff1667ffffffffffffffff16815260200190815260200160002060010160109054906101000a90046dffffffffffffffffffffffffffff166dffffffffffffffffffffffffffff16611d70565b915050919050565b6109df611b76565b6109e98282611d99565b5050565b6109f5611b76565b8173ffffffffffffffffffffffffffffffffffffffff16637a9e5e4b826040518263ffffffff1660e01b8152600401610a2e9190614452565b600060405180830381600087803b158015610a4857600080fd5b505af1158015610a5c573d6000803e3d6000fd5b505050505050565b600080610a6f611d48565b90506000610a7b611ec4565b9050600080610a8c83898989611ecc565b9150915081158015610aa4575060008163ffffffff16145b15610af3578288610ab58989611f4c565b6040517f81c6f24b000000000000000000000000000000000000000000000000000000008152600401610aea9392919061447c565b60405180910390fd5b6000610b01848a8a8a6111b7565b90506000808363ffffffff16141580610b2b57506000610b2083610ce8565b65ffffffffffff1614155b15610b3c57610b3982611f75565b90505b600086600301549050610b588b610b538c8c611f4c565b61213e565b8760030181905550610baf8b8b8b8080601f016020809104026020016040519081016040528093929190818152602001838380828437600081840152601f19601f8201169050808301925050505050505034612171565b50808760030181905550819750505050505050509392505050565b610bd2611b76565b610be68383610be086610963565b8461223e565b50505050565b6000806000806000610bfc611d48565b905060008160010160008967ffffffffffffffff1667ffffffffffffffff16815260200190815260200160002060000160008873ffffffffffffffffffffffffffffffffffffffff1673ffffffffffffffffffffffffffffffffffffffff16815260200190815260200160002090508060000160009054906101000a900465ffffffffffff169550610cbb8160000160069054906101000a90046dffffffffffffffffffffffffffff166dffffffffffffffffffffffffffff16612623565b809550819650829750505050505092959194509250565b610cda611b76565b610ce48282612646565b5050565b600080610cf3611d48565b9050600081600201600085815260200190815260200160002060000160009054906101000a900465ffffffffffff169050610d2d81612764565b610d375780610d3a565b60005b92505050919050565b67ffffffffffffffff81565b600080610d5a611d48565b905080600201600084815260200190815260200160002060000160069054906101000a900463ffffffff16915050919050565b600062093a80905090565b600080610da3611d48565b9050610e1c8160000160008573ffffffffffffffffffffffffffffffffffffffff1673ffffffffffffffffffffffffffffffffffffffff16815260200190815260200160002060010160009054906101000a90046dffffffffffffffffffffffffffff166dffffffffffffffffffffffffffff16611d70565b915050919050565b610e2c611b76565b610e3682826127a0565b5050565b600080610e45611d48565b90508060010160008467ffffffffffffffff1667ffffffffffffffff16815260200190815260200160002060010160009054906101000a900467ffffffffffffffff16915050919050565b600080610e9b611d48565b90508060000160008573ffffffffffffffffffffffffffffffffffffffff1673ffffffffffffffffffffffffffffffffffffffff1681526020019081526020016000206000016000847bffffffffffffffffffffffffffffffffffffffffffffffffffffffff19167bffffffffffffffffffffffffffffffffffffffffffffffffffffffff1916815260200190815260200160002060009054906101000a900467ffffffffffffffff1691505092915050565b600081565b610f5b611b76565b600067ffffffffffffffff168367ffffffffffffffff161480610f91575067ffffffffffffffff80168367ffffffffffffffff16145b15610fd357826040517f1871a90c000000000000000000000000000000000000000000000000000000008152600401610fca91906139ab565b60405180910390fd5b8267ffffffffffffffff167f1256f5b5ecb89caec12db449738f2fbcd1ba5806cf38f35413f4e5c15bf6a450838360405161100f9291906144ef565b60405180910390a2505050565b6000611026611ec4565b9050638fb3603760e01b7bffffffffffffffffffffffffffffffffffffffffffffffffffffffff19168173ffffffffffffffffffffffffffffffffffffffff16638fb360376040518163ffffffff1660e01b8152600401602060405180830381865afa15801561109a573d6000803e3d6000fd5b505050506040513d601f19601f820116820180604052508101906110be9190614528565b7bffffffffffffffffffffffffffffffffffffffffffffffffffffffff19161461111f57806040517f320ff7480000000000000000000000000000000000000000000000000000000081526004016111169190614452565b60405180910390fd5b61113361112e858386866111b7565b611f75565b5050505050565b600080611145611d48565b90508060000160008473ffffffffffffffffffffffffffffffffffffffff1673ffffffffffffffffffffffffffffffffffffffff168152602001908152602001600020600101600e9054906101000a900460ff16915050919050565b6111a9611b76565b6111b382826128be565b5050565b6000848484846040516020016111d09493929190614593565b604051602081830303815290604052805190602001209050949350505050565b606060006111fc611ec4565b73ffffffffffffffffffffffffffffffffffffffff163373ffffffffffffffffffffffffffffffffffffffff161461129f57600036611239612a46565b6000369050611248919061460c565b9080926112579392919061464a565b8080601f016020809104026020016040519081016040528093929190818152602001838380828437600081840152601f19601f820116905080830192505050505050506112ee565b600067ffffffffffffffff8111156112ba576112b9614685565b5b6040519080825280601f01601f1916602001820160405280156112ec5781602001600182028036833780820191505090505b505b90508383905067ffffffffffffffff81111561130d5761130c614685565b5b60405190808252806020026020018201604052801561134057816020015b606081526020019060019003908161132b5790505b50915060005b848490508110156113cc576113a130868684818110611368576113676143e7565b5b905060200281019061137a91906146c3565b8560405160200161138d93929190614787565b604051602081830303815290604052612a4b565b8382815181106113b4576113b36143e7565b5b60200260200101819052508080600101915050611346565b505092915050565b6000806113e08461113a565b156113f15760008091509150611479565b3073ffffffffffffffffffffffffffffffffffffffff168573ffffffffffffffffffffffffffffffffffffffff16036114395761142e8484612acf565b600091509150611479565b60006114458585610e90565b90506000806114548389611632565b915091508161146557600080611471565b60008163ffffffff1614815b945094505050505b935093915050565b611489611b76565b6114938282612af5565b505050565b60006114a2612cf2565b905060008160000160089054906101000a900460ff1615905060008260000160009054906101000a900467ffffffffffffffff1690506000808267ffffffffffffffff161480156114f05750825b9050600060018367ffffffffffffffff16148015611525575060003073ffffffffffffffffffffffffffffffffffffffff163b145b905081158015611533575080155b1561156a576040517ff92ee8a900000000000000000000000000000000000000000000000000000000815260040160405180910390fd5b60018560000160006101000a81548167ffffffffffffffff021916908367ffffffffffffffff16021790555083156115ba5760018560000160086101000a81548160ff0219169083151502179055505b6115c386612d1a565b831561161f5760008560000160086101000a81548160ff0219169083151502179055507fc7f505b2f371ae2175ee4913f4499e1f2633a7b5936321eed1cdaeb6115181d2600160405161161691906147f2565b60405180910390a15b505050505050565b600062069780905090565b60008067ffffffffffffffff80168467ffffffffffffffff160361165d5760016000915091506116a8565b60008061166a8686610bec565b50509150915060008265ffffffffffff16141580156116a0575061168c612d2e565b65ffffffffffff168265ffffffffffff1611155b819350935050505b9250929050565b6116b7611b76565b6116c18282612d3e565b5050565b6000806116d0611d48565b905060006116dc611ec4565b905060006116ea8686611f4c565b905060006116fa898989896111b7565b9050600084600201600083815260200190815260200160002060000160009054906101000a900465ffffffffffff1665ffffffffffff160361177357806040517f60a299b000000000000000000000000000000000000000000000000000000000815260040161176a9190613fb9565b60405180910390fd5b8273ffffffffffffffffffffffffffffffffffffffff168973ffffffffffffffffffffffffffffffffffffffff161461182d5760006117b3600085611632565b50905060006117d36117cd6117c88c87610e90565b61090d565b86611632565b509050811580156117e2575080155b1561182a57848b8b866040517f3fe2751c000000000000000000000000000000000000000000000000000000008152600401611821949392919061480d565b60405180910390fd5b50505b83600201600082815260200190815260200160002060000160006101000a81549065ffffffffffff0219169055600084600201600083815260200190815260200160002060000160069054906101000a900463ffffffff1690508063ffffffff16827fbd9ac67a6e2f6463b80927326310338bcbb4bdb7936ce1365ea3e01067e7b9f760405160405180910390a38095505050505050949350505050565b60008060006118d8611d48565b905060006118e4611ec4565b905060006118f4828a8a8a611ecc565b91505060008163ffffffff16611908612d2e565b6119129190614852565b905060008263ffffffff16148061194c575060008765ffffffffffff1611801561194b57508065ffffffffffff168765ffffffffffff16105b5b1561199b57828a61195d8b8b611f4c565b6040517f81c6f24b0000000000000000000000000000000000000000000000000000000081526004016119929392919061447c565b60405180910390fd5b6119b58765ffffffffffff168265ffffffffffff16612eaa565b96506119c3838b8b8b6111b7565b95506119ce86612ec3565b600184600201600088815260200190815260200160002060000160069054906101000a900463ffffffff160194508684600201600088815260200190815260200160002060000160006101000a81548165ffffffffffff021916908365ffffffffffff1602179055508484600201600088815260200190815260200160002060000160066101000a81548163ffffffff021916908363ffffffff1602179055508463ffffffff16867f82a2da5dee54ea8021c6545b4444620291e07ee83be6dd57edb175062715f3b489868e8e8e604051611aad95949392919061488c565b60405180910390a35050505094509492505050565b611aca611ec4565b73ffffffffffffffffffffffffffffffffffffffff168173ffffffffffffffffffffffffffffffffffffffff1614611b2e576040517f5f159e6300000000000000000000000000000000000000000000000000000000815260040160405180910390fd5b611b388282612af5565b505050565b6040518060400160405280600581526020017f312e302e3000000000000000000000000000000000000000000000000000000081525081565b6000611b80611ec4565b9050600080611b9683611b91612f64565b612f71565b9150915081611c1e5760008163ffffffff1603611c02576000611bbf611bba612f64565b61305f565b5091505083816040517ff07e038f000000000000000000000000000000000000000000000000000000008152600401611bf99291906148da565b60405180910390fd5b611c1c611c178430611c12612f64565b6111b7565b611f75565b505b505050565b6000611c2d611d48565b9050818160000160008673ffffffffffffffffffffffffffffffffffffffff1673ffffffffffffffffffffffffffffffffffffffff1681526020019081526020016000206000016000857bffffffffffffffffffffffffffffffffffffffffffffffffffffffff19167bffffffffffffffffffffffffffffffffffffffffffffffffffffffff1916815260200190815260200160002060006101000a81548167ffffffffffffffff021916908367ffffffffffffffff1602179055508167ffffffffffffffff168473ffffffffffffffffffffffffffffffffffffffff167f9ea6790c7dadfd01c9f8b9762b3682607af2c7e79e05a9f9fdf5580dde94915185604051611d3a9190614903565b60405180910390a350505050565b60007f40c6c8c28789853c7efd823ab20824bbd71718a8a5915e855f6f288c9a26ad00905090565b600080611d8c836dffffffffffffffffffffffffffff16612623565b5050905080915050919050565b6000611da3611d48565b90503073ffffffffffffffffffffffffffffffffffffffff168373ffffffffffffffffffffffffffffffffffffffff1603611e1557826040517f5a068bc8000000000000000000000000000000000000000000000000000000008152600401611e0c9190614452565b60405180910390fd5b818160000160008573ffffffffffffffffffffffffffffffffffffffff1673ffffffffffffffffffffffffffffffffffffffff168152602001908152602001600020600101600e6101000a81548160ff0219169083151502179055508273ffffffffffffffffffffffffffffffffffffffff167f90d4e7bb7e5d933792b3562e1741306f8be94837e1348dacef9b6f1df56eb13883604051611eb79190613edb565b60405180910390a2505050565b600033905090565b6000803073ffffffffffffffffffffffffffffffffffffffff168573ffffffffffffffffffffffffffffffffffffffff1603611f1657611f0d868585612f71565b91509150611f43565b60048484905010611f3a57611f358686611f308787611f4c565b6113d4565b611f3e565b6000805b915091505b94509492505050565b60008282600090600492611f629392919061464a565b90611f6d9190614936565b905092915050565b600080611f80611d48565b9050600081600201600085815260200190815260200160002060000160009054906101000a900465ffffffffffff169050600082600201600086815260200190815260200160002060000160069054906101000a900463ffffffff16905060008265ffffffffffff160361202b57846040517f60a299b00000000000000000000000000000000000000000000000000000000081526004016120229190613fb9565b60405180910390fd5b612033612d2e565b65ffffffffffff168265ffffffffffff16111561208757846040517f18cb6b7a00000000000000000000000000000000000000000000000000000000815260040161207e9190613fb9565b60405180910390fd5b61209082612764565b156120d257846040517f78a5d6e40000000000000000000000000000000000000000000000000000000081526004016120c99190613fb9565b60405180910390fd5b82600201600086815260200190815260200160002060000160006101000a81549065ffffffffffff02191690558063ffffffff16857f76a2a46953689d4861a5d3f6ed883ad7e6af674a21f8e162707159fc9dde614d60405160405180910390a3809350505050919050565b60008282604051602001612153929190614995565b60405160208183030381529060405280519060200120905092915050565b6060814710156121b857306040517fcd7860590000000000000000000000000000000000000000000000000000000081526004016121af9190614452565b60405180910390fd5b6000808573ffffffffffffffffffffffffffffffffffffffff1684866040516121e191906149be565b60006040518083038185875af1925050503d806000811461221e576040519150601f19603f3d011682016040523d82523d6000602084013e612223565b606091505b5091509150612233868383613447565b925050509392505050565b600080612249611d48565b905067ffffffffffffffff80168667ffffffffffffffff16036122a357856040517f1871a90c00000000000000000000000000000000000000000000000000000000815260040161229a91906139ab565b60405180910390fd5b6000808260010160008967ffffffffffffffff1667ffffffffffffffff16815260200190815260200160002060000160008873ffffffffffffffffffffffffffffffffffffffff1673ffffffffffffffffffffffffffffffffffffffff16815260200190815260200160002060000160009054906101000a900465ffffffffffff1665ffffffffffff1614905060008115612465578563ffffffff16612347612d2e565b6123519190614852565b905060405180604001604052808265ffffffffffff16815260200161237b8763ffffffff166134d6565b6dffffffffffffffffffffffffffff168152508360010160008a67ffffffffffffffff1667ffffffffffffffff16815260200190815260200160002060000160008973ffffffffffffffffffffffffffffffffffffffff1673ffffffffffffffffffffffffffffffffffffffff16815260200190815260200160002060008201518160000160006101000a81548165ffffffffffff021916908365ffffffffffff16021790555060208201518160000160066101000a8154816dffffffffffffffffffffffffffff02191690836dffffffffffffffffffffffffffff1602179055509050506125b8565b6125118560008560010160008c67ffffffffffffffff1667ffffffffffffffff16815260200190815260200160002060000160008b73ffffffffffffffffffffffffffffffffffffffff1673ffffffffffffffffffffffffffffffffffffffff16815260200190815260200160002060000160069054906101000a90046dffffffffffffffffffffffffffff166dffffffffffffffffffffffffffff166134e69092919063ffffffff16565b8460010160008b67ffffffffffffffff1667ffffffffffffffff16815260200190815260200160002060000160008a73ffffffffffffffffffffffffffffffffffffffff1673ffffffffffffffffffffffffffffffffffffffff16815260200190815260200160002060000160068294508391906101000a8154816dffffffffffffffffffffffffffff02191690836dffffffffffffffffffffffffffff16021790555050505b8673ffffffffffffffffffffffffffffffffffffffff168867ffffffffffffffff167ff98448b987f1428e0e230e1f3c6e2ce15b5693eaf31827fbd0b1ec4b424ae7cf87848660405161260d939291906149d5565b60405180910390a3819350505050949350505050565b600080600061263984612634612d2e565b613578565b9250925092509193909250565b6000612650611d48565b9050600067ffffffffffffffff168367ffffffffffffffff161480612688575067ffffffffffffffff80168367ffffffffffffffff16145b156126ca57826040517f1871a90c0000000000000000000000000000000000000000000000000000000081526004016126c191906139ab565b60405180910390fd5b818160010160008567ffffffffffffffff1667ffffffffffffffff16815260200190815260200160002060010160006101000a81548167ffffffffffffffff021916908367ffffffffffffffff1602179055508167ffffffffffffffff168367ffffffffffffffff167f1fd6dd7631312dfac2205b52913f99de03b4d7e381d5d27d3dbfe0713e6e634060405160405180910390a3505050565b600061276e612d2e565b65ffffffffffff1661277e610d8d565b63ffffffff168361278f9190614852565b65ffffffffffff1611159050919050565b60006127aa611d48565b9050600067ffffffffffffffff168367ffffffffffffffff1614806127e2575067ffffffffffffffff80168367ffffffffffffffff16145b1561282457826040517f1871a90c00000000000000000000000000000000000000000000000000000000815260040161281b91906139ab565b60405180910390fd5b818160010160008567ffffffffffffffff1667ffffffffffffffff16815260200190815260200160002060010160086101000a81548167ffffffffffffffff021916908367ffffffffffffffff1602179055508167ffffffffffffffff168367ffffffffffffffff167f7a8059630b897b5de4c08ade69f8b90c3ead1f8596d62d10b6c4d14a0afb4ae260405160405180910390a3505050565b60006128c8611d48565b905067ffffffffffffffff80168367ffffffffffffffff160361292257826040517f1871a90c00000000000000000000000000000000000000000000000000000000815260040161291991906139ab565b60405180910390fd5b600061299683612930611627565b8460010160008867ffffffffffffffff1667ffffffffffffffff16815260200190815260200160002060010160109054906101000a90046dffffffffffffffffffffffffffff166dffffffffffffffffffffffffffff166134e69092919063ffffffff16565b8360010160008767ffffffffffffffff1667ffffffffffffffff16815260200190815260200160002060010160108294508391906101000a8154816dffffffffffffffffffffffffffff02191690836dffffffffffffffffffffffffffff16021790555050508367ffffffffffffffff167ffeb69018ee8b8fd50ea86348f1267d07673379f72cffdeccec63853ee8ce8b488483604051612a38929190614a0c565b60405180910390a250505050565b600090565b60606000808473ffffffffffffffffffffffffffffffffffffffff1684604051612a7591906149be565b600060405180830381855af49150503d8060008114612ab0576040519150601f19603f3d011682016040523d82523d6000602084013e612ab5565b606091505b5091509150612ac5858383613447565b9250505092915050565b600080612ada611d48565b9050612ae6848461213e565b81600301541491505092915050565b600080612b00611d48565b905067ffffffffffffffff80168467ffffffffffffffff1603612b5a57836040517f1871a90c000000000000000000000000000000000000000000000000000000008152600401612b5191906139ab565b60405180910390fd5b60008160010160008667ffffffffffffffff1667ffffffffffffffff16815260200190815260200160002060000160008573ffffffffffffffffffffffffffffffffffffffff1673ffffffffffffffffffffffffffffffffffffffff16815260200190815260200160002060000160009054906101000a900465ffffffffffff1665ffffffffffff1603612bf2576000915050612cec565b8060010160008567ffffffffffffffff1667ffffffffffffffff16815260200190815260200160002060000160008473ffffffffffffffffffffffffffffffffffffffff1673ffffffffffffffffffffffffffffffffffffffff168152602001908152602001600020600080820160006101000a81549065ffffffffffff02191690556000820160066101000a8154906dffffffffffffffffffffffffffff021916905550508273ffffffffffffffffffffffffffffffffffffffff168467ffffffffffffffff167ff229baa593af28c41b1d16b748cd7688f0c83aaf92d4be41c44005defe84c16660405160405180910390a360019150505b92915050565b60007ff0c57e16840df040f15088dc2f81fe391c3923bec73e23a9662efc9c229c6a00905090565b612d226135d5565b612d2b81613615565b50565b6000612d39426136a1565b905090565b6000612d48611d48565b90506000612dd683612d58611627565b8460000160008873ffffffffffffffffffffffffffffffffffffffff1673ffffffffffffffffffffffffffffffffffffffff16815260200190815260200160002060010160009054906101000a90046dffffffffffffffffffffffffffff166dffffffffffffffffffffffffffff166134e69092919063ffffffff16565b8360000160008773ffffffffffffffffffffffffffffffffffffffff1673ffffffffffffffffffffffffffffffffffffffff16815260200190815260200160002060010160008294508391906101000a8154816dffffffffffffffffffffffffffff02191690836dffffffffffffffffffffffffffff16021790555050508373ffffffffffffffffffffffffffffffffffffffff167fa56b76017453f399ec2327ba00375dbfb1fd070ff854341ad6191e6a2e2de19c8483604051612e9c929190614a0c565b60405180910390a250505050565b6000818311612eb95781612ebb565b825b905092915050565b6000612ecd611d48565b9050600081600201600084815260200190815260200160002060000160009054906101000a900465ffffffffffff16905060008165ffffffffffff1614158015612f1d5750612f1b81612764565b155b15612f5f57826040517f813e9459000000000000000000000000000000000000000000000000000000008152600401612f569190613fb9565b60405180910390fd5b505050565b3660008036915091509091565b6000806004848490501015612f8c5760008091509150613057565b3073ffffffffffffffffffffffffffffffffffffffff168573ffffffffffffffffffffffffffffffffffffffff1603612fdd57612fd230612fcd8686611f4c565b612acf565b600091509150613057565b6000806000612fec878761305f565b925092509250826130065760008094509450505050613057565b600080613013848b611632565b915091508161302d57600080965096505050505050613057565b6130438363ffffffff168263ffffffff16612eaa565b955060008663ffffffff1614965050505050505b935093915050565b60008060006004858590501015613080576000806000925092509250613440565b600061308c8686611f4c565b905063853551b860e01b7bffffffffffffffffffffffffffffffffffffffffffffffffffffffff1916817bffffffffffffffffffffffffffffffffffffffffffffffffffffffff1916148061312557506330cae18760e01b7bffffffffffffffffffffffffffffffffffffffffffffffffffffffff1916817bffffffffffffffffffffffffffffffffffffffffffffffffffffffff1916145b806131745750635296295260e01b7bffffffffffffffffffffffffffffffffffffffffffffffffffffffff1916817bffffffffffffffffffffffffffffffffffffffffffffffffffffffff1916145b806131c3575063a64d95ce60e01b7bffffffffffffffffffffffffffffffffffffffffffffffffffffffff1916817bffffffffffffffffffffffffffffffffffffffffffffffffffffffff1916145b80613212575063d22b598960e01b7bffffffffffffffffffffffffffffffffffffffffffffffffffffffff1916817bffffffffffffffffffffffffffffffffffffffffffffffffffffffff1916145b1561322857600160008093509350935050613440565b6318ff183c60e01b7bffffffffffffffffffffffffffffffffffffffffffffffffffffffff1916817bffffffffffffffffffffffffffffffffffffffffffffffffffffffff191614806132bf575063167bd39560e01b7bffffffffffffffffffffffffffffffffffffffffffffffffffffffff1916817bffffffffffffffffffffffffffffffffffffffffffffffffffffffff1916145b8061330e57506308d6122d60e01b7bffffffffffffffffffffffffffffffffffffffffffffffffffffffff1916817bffffffffffffffffffffffffffffffffffffffffffffffffffffffff1916145b1561335857600086866004906024926133299392919061464a565b8101906133369190614a73565b9050600061334382610d98565b90506001600082955095509550505050613440565b6325c471a060e01b7bffffffffffffffffffffffffffffffffffffffffffffffffffffffff1916817bffffffffffffffffffffffffffffffffffffffffffffffffffffffff191614806133ef575063b7d2b16260e01b7bffffffffffffffffffffffffffffffffffffffffffffffffffffffff1916817bffffffffffffffffffffffffffffffffffffffffffffffffffffffff1916145b15613433576000868660049060249261340a9392919061464a565b810190613417919061396f565b9050600161342482610e3a565b60009450945094505050613440565b6000806000935093509350505b9250925092565b60608261345c57613457826136fb565b6134ce565b60008251148015613484575060008473ffffffffffffffffffffffffffffffffffffffff163b145b156134c657836040517f9996b3150000000000000000000000000000000000000000000000000000000081526004016134bd9190614452565b60405180910390fd5b8190506134cf565b5b9392505050565b60008163ffffffff169050919050565b6000806000613504866dffffffffffffffffffffffffffff16611d70565b905060006135448563ffffffff168763ffffffff168463ffffffff161161352c576000613539565b87846135389190614aa0565b5b63ffffffff16612eaa565b90508063ffffffff16613555612d2e565b61355f9190614852565b925061356c828785613740565b93505050935093915050565b60008060008060008061359a886dffffffffffffffffffffffffffff1661378c565b9250925092508665ffffffffffff168165ffffffffffff1611156135c0578282826135c5565b816000805b9550955095505050509250925092565b6135dd6137ce565b613613576040517fd7e6bcf800000000000000000000000000000000000000000000000000000000815260040160405180910390fd5b565b61361d6135d5565b600073ffffffffffffffffffffffffffffffffffffffff168173ffffffffffffffffffffffffffffffffffffffff160361368f5760006040517f0813ada20000000000000000000000000000000000000000000000000000000081526004016136869190614452565b60405180910390fd5b61369d60008260008061223e565b5050565b600065ffffffffffff80168211156136f3576030826040517f6dfcc6500000000000000000000000000000000000000000000000000000000081526004016136ea929190614b2f565b60405180910390fd5b819050919050565b60008151111561370e5780518082602001fd5b6040517f1425ea4200000000000000000000000000000000000000000000000000000000815260040160405180910390fd5b60008263ffffffff1660208563ffffffff166dffffffffffffffffffffffffffff16901b60408465ffffffffffff166dffffffffffffffffffffffffffff16901b171790509392505050565b6000806000808490508092506020816dffffffffffffffffffffffffffff16901c93506040816dffffffffffffffffffffffffffff16901c9150509193909250565b60006137d8612cf2565b60000160089054906101000a900460ff16905090565b600080fd5b600080fd5b600073ffffffffffffffffffffffffffffffffffffffff82169050919050565b6000613823826137f8565b9050919050565b61383381613818565b811461383e57600080fd5b50565b6000813590506138508161382a565b92915050565b600080fd5b600080fd5b600080fd5b60008083601f84011261387b5761387a613856565b5b8235905067ffffffffffffffff8111156138985761389761385b565b5b6020830191508360208202830111156138b4576138b3613860565b5b9250929050565b600067ffffffffffffffff82169050919050565b6138d8816138bb565b81146138e357600080fd5b50565b6000813590506138f5816138cf565b92915050565b60008060008060608587031215613915576139146137ee565b5b600061392387828801613841565b945050602085013567ffffffffffffffff811115613944576139436137f3565b5b61395087828801613865565b93509350506040613963878288016138e6565b91505092959194509250565b600060208284031215613985576139846137ee565b5b6000613993848285016138e6565b91505092915050565b6139a5816138bb565b82525050565b60006020820190506139c0600083018461399c565b92915050565b600063ffffffff82169050919050565b6139df816139c6565b82525050565b60006020820190506139fa60008301846139d6565b92915050565b60008115159050919050565b613a1581613a00565b8114613a2057600080fd5b50565b600081359050613a3281613a0c565b92915050565b60008060408385031215613a4f57613a4e6137ee565b5b6000613a5d85828601613841565b9250506020613a6e85828601613a23565b9150509250929050565b60008060408385031215613a8f57613a8e6137ee565b5b6000613a9d85828601613841565b9250506020613aae85828601613841565b9150509250929050565b60008083601f840112613ace57613acd613856565b5b8235905067ffffffffffffffff811115613aeb57613aea61385b565b5b602083019150836001820283011115613b0757613b06613860565b5b9250929050565b600080600060408486031215613b2757613b266137ee565b5b6000613b3586828701613841565b935050602084013567ffffffffffffffff811115613b5657613b556137f3565b5b613b6286828701613ab8565b92509250509250925092565b613b77816139c6565b8114613b8257600080fd5b50565b600081359050613b9481613b6e565b92915050565b600080600060608486031215613bb357613bb26137ee565b5b6000613bc1868287016138e6565b9350506020613bd286828701613841565b9250506040613be386828701613b85565b9150509250925092565b60008060408385031215613c0457613c036137ee565b5b6000613c12858286016138e6565b9250506020613c2385828601613841565b9150509250929050565b600065ffffffffffff82169050919050565b613c4881613c2d565b82525050565b6000608082019050613c636000830187613c3f565b613c7060208301866139d6565b613c7d60408301856139d6565b613c8a6060830184613c3f565b95945050505050565b60008060408385031215613caa57613ca96137ee565b5b6000613cb8858286016138e6565b9250506020613cc9858286016138e6565b9150509250929050565b6000819050919050565b613ce681613cd3565b8114613cf157600080fd5b50565b600081359050613d0381613cdd565b92915050565b600060208284031215613d1f57613d1e6137ee565b5b6000613d2d84828501613cf4565b91505092915050565b6000602082019050613d4b6000830184613c3f565b92915050565b600060208284031215613d6757613d666137ee565b5b6000613d7584828501613841565b91505092915050565b60007fffffffff0000000000000000000000000000000000000000000000000000000082169050919050565b613db381613d7e565b8114613dbe57600080fd5b50565b600081359050613dd081613daa565b92915050565b60008060408385031215613ded57613dec6137ee565b5b6000613dfb85828601613841565b9250506020613e0c85828601613dc1565b9150509250929050565b60008083601f840112613e2c57613e2b613856565b5b8235905067ffffffffffffffff811115613e4957613e4861385b565b5b602083019150836001820283011115613e6557613e64613860565b5b9250929050565b600080600060408486031215613e8557613e846137ee565b5b6000613e93868287016138e6565b935050602084013567ffffffffffffffff811115613eb457613eb36137f3565b5b613ec086828701613e16565b92509250509250925092565b613ed581613a00565b82525050565b6000602082019050613ef06000830184613ecc565b92915050565b60008060408385031215613f0d57613f0c6137ee565b5b6000613f1b858286016138e6565b9250506020613f2c85828601613b85565b9150509250929050565b60008060008060608587031215613f5057613f4f6137ee565b5b6000613f5e87828801613841565b9450506020613f6f87828801613841565b935050604085013567ffffffffffffffff811115613f9057613f8f6137f3565b5b613f9c87828801613ab8565b925092505092959194509250565b613fb381613cd3565b82525050565b6000602082019050613fce6000830184613faa565b92915050565b60008083601f840112613fea57613fe9613856565b5b8235905067ffffffffffffffff8111156140075761400661385b565b5b60208301915083602082028301111561402357614022613860565b5b9250929050565b60008060208385031215614041576140406137ee565b5b600083013567ffffffffffffffff81111561405f5761405e6137f3565b5b61406b85828601613fd4565b92509250509250929050565b600081519050919050565b600082825260208201905092915050565b6000819050602082019050919050565b600081519050919050565b600082825260208201905092915050565b60005b838110156140dd5780820151818401526020810190506140c2565b60008484015250505050565b6000601f19601f8301169050919050565b6000614105826140a3565b61410f81856140ae565b935061411f8185602086016140bf565b614128816140e9565b840191505092915050565b600061413f83836140fa565b905092915050565b6000602082019050919050565b600061415f82614077565b6141698185614082565b93508360208202850161417b85614093565b8060005b858110156141b757848403895281516141988582614133565b94506141a383614147565b925060208a0199505060018101905061417f565b50829750879550505050505092915050565b600060208201905081810360008301526141e38184614154565b905092915050565b600080600060608486031215614204576142036137ee565b5b600061421286828701613841565b935050602061422386828701613841565b925050604061423486828701613dc1565b9150509250925092565b60006040820190506142536000830185613ecc565b61426060208301846139d6565b9392505050565b6000806040838503121561427e5761427d6137ee565b5b600061428c85828601613841565b925050602061429d85828601613b85565b9150509250929050565b6142b081613c2d565b81146142bb57600080fd5b50565b6000813590506142cd816142a7565b92915050565b600080600080606085870312156142ed576142ec6137ee565b5b60006142fb87828801613841565b945050602085013567ffffffffffffffff81111561431c5761431b6137f3565b5b61432887828801613ab8565b9350935050604061433b878288016142be565b91505092959194509250565b600060408201905061435c6000830185613faa565b61436960208301846139d6565b9392505050565b600081519050919050565b600082825260208201905092915050565b600061439782614370565b6143a1818561437b565b93506143b18185602086016140bf565b6143ba816140e9565b840191505092915050565b600060208201905081810360008301526143df818461438c565b905092915050565b7f4e487b7100000000000000000000000000000000000000000000000000000000600052603260045260246000fd5b60006020828403121561442c5761442b6137ee565b5b600061443a84828501613dc1565b91505092915050565b61444c81613818565b82525050565b60006020820190506144676000830184614443565b92915050565b61447681613d7e565b82525050565b60006060820190506144916000830186614443565b61449e6020830185614443565b6144ab604083018461446d565b949350505050565b82818337600083830152505050565b60006144ce838561437b565b93506144db8385846144b3565b6144e4836140e9565b840190509392505050565b6000602082019050818103600083015261450a8184866144c2565b90509392505050565b60008151905061452281613daa565b92915050565b60006020828403121561453e5761453d6137ee565b5b600061454c84828501614513565b91505092915050565b600082825260208201905092915050565b60006145728385614555565b935061457f8385846144b3565b614588836140e9565b840190509392505050565b60006060820190506145a86000830187614443565b6145b56020830186614443565b81810360408301526145c8818486614566565b905095945050505050565b6000819050919050565b7f4e487b7100000000000000000000000000000000000000000000000000000000600052601160045260246000fd5b6000614617826145d3565b9150614622836145d3565b925082820390508181111561463a576146396145dd565b5b92915050565b600080fd5b600080fd5b6000808585111561465e5761465d614640565b5b8386111561466f5761466e614645565b5b6001850283019150848603905094509492505050565b7f4e487b7100000000000000000000000000000000000000000000000000000000600052604160045260246000fd5b600080fd5b600080fd5b600080fd5b600080833560016020038436030381126146e0576146df6146b4565b5b80840192508235915067ffffffffffffffff821115614702576147016146b9565b5b60208301925060018202360383131561471e5761471d6146be565b5b509250929050565b600081905092915050565b600061473d8385614726565b935061474a8385846144b3565b82840190509392505050565b6000614761826140a3565b61476b8185614726565b935061477b8185602086016140bf565b80840191505092915050565b6000614794828587614731565b91506147a08284614756565b9150819050949350505050565b6000819050919050565b6000819050919050565b60006147dc6147d76147d2846147ad565b6147b7565b6138bb565b9050919050565b6147ec816147c1565b82525050565b600060208201905061480760008301846147e3565b92915050565b60006080820190506148226000830187614443565b61482f6020830186614443565b61483c6040830185614443565b614849606083018461446d565b95945050505050565b600061485d82613c2d565b915061486883613c2d565b9250828201905065ffffffffffff811115614886576148856145dd565b5b92915050565b60006080820190506148a16000830188613c3f565b6148ae6020830187614443565b6148bb6040830186614443565b81810360608301526148ce818486614566565b90509695505050505050565b60006040820190506148ef6000830185614443565b6148fc602083018461399c565b9392505050565b6000602082019050614918600083018461446d565b92915050565b600082905092915050565b600082821b905092915050565b6000614942838361491e565b8261494d8135613d7e565b9250600482101561498d576149887fffffffff0000000000000000000000000000000000000000000000000000000083600403600802614929565b831692505b505092915050565b60006040820190506149aa6000830185614443565b6149b7602083018461446d565b9392505050565b60006149ca8284614756565b915081905092915050565b60006060820190506149ea60008301866139d6565b6149f76020830185613c3f565b614a046040830184613ecc565b949350505050565b6000604082019050614a2160008301856139d6565b614a2e6020830184613c3f565b9392505050565b6000614a40826137f8565b9050919050565b614a5081614a35565b8114614a5b57600080fd5b50565b600081359050614a6d81614a47565b92915050565b600060208284031215614a8957614a886137ee565b5b6000614a9784828501614a5e565b91505092915050565b6000614aab826139c6565b9150614ab6836139c6565b9250828203905063ffffffff811115614ad257614ad16145dd565b5b92915050565b6000819050919050565b600060ff82169050919050565b6000614b0a614b05614b0084614ad8565b6147b7565b614ae2565b9050919050565b614b1a81614aef565b82525050565b614b29816145d3565b82525050565b6000604082019050614b446000830185614b11565b614b516020830184614b20565b939250505056fea26469706673582212206c57901fc02b8578ec6ba9869944b12f2430f7547550b5af491e55d79a7b32d864736f6c63430008180033",
  "linkReferences": {},
  "deployedLinkReferences": {}
}