{
  "_format": "hh-sol-artifact-1",
  "contractName": "Proxy",
  "sourceName": "contracts/Proxy.sol",
  "abi": [
    {
      "inputs": [],
      "name": "ImplementationIsNotContract",
      "type": "error"
    },
    {
      "inputs": [],
      "name": "ProxyUpgradeDenied",
      "type": "error"
    },
    {
      "anonymous": false,
      "inputs": [
        {
          "indexed": true,
          "internalType": "address",
          "name": "implementation",
          "type": "address"
        }
      ],
      "name": "Upgraded",
      "type": "event"
    },
    {
      "stateMutability": "payable",
      "type": "fallback"
    },
    {
      "inputs": [],
      "name": "implementation",
      "outputs": [
        {
          "internalType": "address",
          "name": "",
          "type": "address"
        }
      ],
      "stateMutability": "view",
      "type": "function"
    },
    {
      "inputs": [
        {
          "internalType": "address",
          "name": "logic_",
          "type": "address"
        }
      ],
      "name": "initProxy",
      "outputs": [],
      "stateMutability": "nonpayable",
      "type": "function"
    },
    {
      "inputs": [
        {
          "internalType": "address",
          "name": "newImplementation_",
          "type": "address"
        }
      ],
      "name": "upgrade",
      "outputs": [],
      "stateMutability": "nonpayable",
      "type": "function"
    },
    {
      "stateMutability": "payable",
      "type": "receive"
    }
  ],
  "bytecode": "0x608060405234801561001057600080fd5b5060017f360894a13ba1a3210667c828492db98dca3e2076cc3735a920a3ca505d382bbd60001c61004191906100b4565b60001b7f360894a13ba1a3210667c828492db98dca3e2076cc3735a920a3ca505d382bbc60001b14610076576100756100e8565b5b610117565b6000819050919050565b7f4e487b7100000000000000000000000000000000000000000000000000000000600052601160045260246000fd5b60006100bf8261007b565b91506100ca8361007b565b92508282039050818111156100e2576100e1610085565b5b92915050565b7f4e487b7100000000000000000000000000000000000000000000000000000000600052600160045260246000fd5b610603806101266000396000f3fe6080604052600436106100385760003560e01c80630900f010146100515780635c60da1b1461007a5780639c020061146100a557610047565b36610047576100456100ce565b005b61004f6100ce565b005b34801561005d57600080fd5b50610078600480360381019061007391906103d3565b6100e0565b005b34801561008657600080fd5b5061008f6101ad565b60405161009c919061040f565b60405180910390f35b3480156100b157600080fd5b506100cc60048036038101906100c791906103d3565b6101bc565b005b6100de6100d96101c8565b6101f9565b565b60003073ffffffffffffffffffffffffffffffffffffffff1663b70096133330630900f01060e01b6040518463ffffffff1660e01b815260040161012693929190610465565b6040805180830381865afa158015610142573d6000803e3d6000fd5b505050506040513d601f19601f820116820180604052508101906101669190610510565b509050806101a0576040517f4de4407800000000000000000000000000000000000000000000000000000000815260040160405180910390fd5b6101a98261021f565b5050565b60006101b76101c8565b905090565b6101c58161026e565b50565b6000807f360894a13ba1a3210667c828492db98dca3e2076cc3735a920a3ca505d382bbc60001b9050805491505090565b3660008037600080366000845af43d6000803e806000811461021a573d6000f35b3d6000fd5b610228816102f0565b8073ffffffffffffffffffffffffffffffffffffffff167fbc7cd75a20ee27fd9adebab32041f755214dbc6bffa90cc0225b39da2e5c2d3b60405160405180910390a250565b600073ffffffffffffffffffffffffffffffffffffffff1661028e6101c8565b73ffffffffffffffffffffffffffffffffffffffff16146102e4576040517f08c379a00000000000000000000000000000000000000000000000000000000081526004016102db906105ad565b60405180910390fd5b6102ed816102f0565b50565b60008173ffffffffffffffffffffffffffffffffffffffff163b03610341576040517fe84f0f9900000000000000000000000000000000000000000000000000000000815260040160405180910390fd5b60007f360894a13ba1a3210667c828492db98dca3e2076cc3735a920a3ca505d382bbc60001b90508181555050565b600080fd5b600073ffffffffffffffffffffffffffffffffffffffff82169050919050565b60006103a082610375565b9050919050565b6103b081610395565b81146103bb57600080fd5b50565b6000813590506103cd816103a7565b92915050565b6000602082840312156103e9576103e8610370565b5b60006103f7848285016103be565b91505092915050565b61040981610395565b82525050565b60006020820190506104246000830184610400565b92915050565b60007fffffffff0000000000000000000000000000000000000000000000000000000082169050919050565b61045f8161042a565b82525050565b600060608201905061047a6000830186610400565b6104876020830185610400565b6104946040830184610456565b949350505050565b60008115159050919050565b6104b18161049c565b81146104bc57600080fd5b50565b6000815190506104ce816104a8565b92915050565b600063ffffffff82169050919050565b6104ed816104d4565b81146104f857600080fd5b50565b60008151905061050a816104e4565b92915050565b6000806040838503121561052757610526610370565b5b6000610535858286016104bf565b9250506020610546858286016104fb565b9150509250929050565b600082825260208201905092915050565b7f416c726561647920696e69746564000000000000000000000000000000000000600082015250565b6000610597600e83610550565b91506105a282610561565b602082019050919050565b600060208201905081810360008301526105c68161058a565b905091905056fea26469706673582212200dde6a52380372fe028fc5c0b7e159a599be51eb74a800c7169f1ff9ffc3dc5f64736f6c63430008180033",
  "linkReferences": {},
  "deployedLinkReferences": {}
}