{
  "_format": "hh-sol-artifact-1",
  "contractName": "FeeTreasury",
  "sourceName": "contracts/FeeTreasury.sol",
  "abi": [
    {
      "inputs": [],
      "name": "AccessDenied",
      "type": "error"
    },
    {
      "inputs": [
        {
          "internalType": "address",
          "name": "authority",
          "type": "address"
        }
      ],
      "name": "AccessManagedInvalidAuthority",
      "type": "error"
    },
    {
      "inputs": [
        {
          "internalType": "address",
          "name": "caller",
          "type": "address"
        },
        {
          "internalType": "uint32",
          "name": "delay",
          "type": "uint32"
        }
      ],
      "name": "AccessManagedRequiredDelay",
      "type": "error"
    },
    {
      "inputs": [
        {
          "internalType": "address",
          "name": "caller",
          "type": "address"
        }
      ],
      "name": "AccessManagedUnauthorized",
      "type": "error"
    },
    {
      "inputs": [
        {
          "internalType": "address",
          "name": "target",
          "type": "address"
        }
      ],
      "name": "AddressEmptyCode",
      "type": "error"
    },
    {
      "inputs": [
        {
          "internalType": "address",
          "name": "account",
          "type": "address"
        }
      ],
      "name": "AddressInsufficientBalance",
      "type": "error"
    },
    {
      "inputs": [
        {
          "internalType": "bytes32",
          "name": "key",
          "type": "bytes32"
        }
      ],
      "name": "EnumerableMapNonexistentKey",
      "type": "error"
    },
    {
      "inputs": [],
      "name": "FailedInnerCall",
      "type": "error"
    },
    {
      "inputs": [],
      "name": "IncorrectArgument",
      "type": "error"
    },
    {
      "inputs": [],
      "name": "InvalidInitialization",
      "type": "error"
    },
    {
      "inputs": [],
      "name": "NotInitializing",
      "type": "error"
    },
    {
      "inputs": [
        {
          "internalType": "address",
          "name": "token",
          "type": "address"
        }
      ],
      "name": "SafeERC20FailedOperation",
      "type": "error"
    },
    {
      "inputs": [],
      "name": "SetupFeeTreasuryFirst",
      "type": "error"
    },
    {
      "anonymous": false,
      "inputs": [
        {
          "indexed": false,
          "internalType": "address",
          "name": "authority",
          "type": "address"
        }
      ],
      "name": "AuthorityUpdated",
      "type": "event"
    },
    {
      "anonymous": false,
      "inputs": [
        {
          "indexed": true,
          "internalType": "address",
          "name": "claimer",
          "type": "address"
        },
        {
          "indexed": true,
          "internalType": "address",
          "name": "asset",
          "type": "address"
        },
        {
          "indexed": false,
          "internalType": "uint256",
          "name": "amount",
          "type": "uint256"
        }
      ],
      "name": "Claim",
      "type": "event"
    },
    {
      "anonymous": false,
      "inputs": [
        {
          "indexed": false,
          "internalType": "address[]",
          "name": "claimers",
          "type": "address[]"
        },
        {
          "indexed": false,
          "internalType": "uint256[]",
          "name": "shares",
          "type": "uint256[]"
        }
      ],
      "name": "Claimers",
      "type": "event"
    },
    {
      "anonymous": false,
      "inputs": [
        {
          "indexed": false,
          "internalType": "uint64",
          "name": "version",
          "type": "uint64"
        }
      ],
      "name": "Initialized",
      "type": "event"
    },
    {
      "inputs": [],
      "name": "VERSION",
      "outputs": [
        {
          "internalType": "string",
          "name": "",
          "type": "string"
        }
      ],
      "stateMutability": "view",
      "type": "function"
    },
    {
      "inputs": [],
      "name": "authority",
      "outputs": [
        {
          "internalType": "address",
          "name": "",
          "type": "address"
        }
      ],
      "stateMutability": "view",
      "type": "function"
    },
    {
      "inputs": [
        {
          "internalType": "address[]",
          "name": "assets",
          "type": "address[]"
        }
      ],
      "name": "claim",
      "outputs": [],
      "stateMutability": "nonpayable",
      "type": "function"
    },
    {
      "inputs": [
        {
          "internalType": "address[]",
          "name": "assets",
          "type": "address[]"
        }
      ],
      "name": "distribute",
      "outputs": [],
      "stateMutability": "nonpayable",
      "type": "function"
    },
    {
      "inputs": [
        {
          "internalType": "address",
          "name": "controller",
          "type": "address"
        }
      ],
      "name": "initialize",
      "outputs": [],
      "stateMutability": "nonpayable",
      "type": "function"
    },
    {
      "inputs": [],
      "name": "isConsumingScheduledOp",
      "outputs": [
        {
          "internalType": "bytes4",
          "name": "",
          "type": "bytes4"
        }
      ],
      "stateMutability": "view",
      "type": "function"
    },
    {
      "inputs": [
        {
          "internalType": "address",
          "name": "newAuthority",
          "type": "address"
        }
      ],
      "name": "setAuthority",
      "outputs": [],
      "stateMutability": "nonpayable",
      "type": "function"
    },
    {
      "inputs": [
        {
          "internalType": "address[]",
          "name": "claimers_",
          "type": "address[]"
        },
        {
          "internalType": "uint256[]",
          "name": "shares",
          "type": "uint256[]"
        }
      ],
      "name": "setClaimers",
      "outputs": [],
      "stateMutability": "nonpayable",
      "type": "function"
    }
  ],
  "bytecode": "0x6080604052600a60005534801561001557600080fd5b50612581806100256000396000f3fe608060405234801561001057600080fd5b50600436106100885760003560e01c8063bf7e214f1161005b578063bf7e214f146100ff578063c4d66de81461011d578063f204bb3114610139578063ffa1ad741461015557610088565b8063318d9e5d1461008d5780636138889b146100a95780637a9e5e4b146100c55780638fb36037146100e1575b600080fd5b6100a760048036038101906100a29190611b26565b610173565b005b6100c360048036038101906100be9190611b26565b610466565b005b6100df60048036038101906100da9190611b6f565b610681565b005b6100e961076d565b6040516100f69190611bd7565b60405180910390f35b6101076107a9565b6040516101149190611c01565b60405180910390f35b61013760048036038101906101329190611b6f565b6107e1565b005b610153600480360381019061014e9190611d15565b610970565b005b61015d610a8d565b60405161016a9190611e0c565b60405180910390f35b600061017d610ac6565b905060006101973383600001610aee90919063ffffffff16565b509050806101d1576040517f4ca8886700000000000000000000000000000000000000000000000000000000815260040160405180910390fd5b60008351905060005b8181101561045f5760008460040160008784815181106101fd576101fc611e2e565b5b602002602001015173ffffffffffffffffffffffffffffffffffffffff1673ffffffffffffffffffffffffffffffffffffffff16815260200190815260200160002060003373ffffffffffffffffffffffffffffffffffffffff1673ffffffffffffffffffffffffffffffffffffffff168152602001908152602001600020549050600085600401600088858151811061029a57610299611e2e565b5b602002602001015173ffffffffffffffffffffffffffffffffffffffff1673ffffffffffffffffffffffffffffffffffffffff16815260200190815260200160002060003373ffffffffffffffffffffffffffffffffffffffff1673ffffffffffffffffffffffffffffffffffffffff16815260200190815260200160002081905550610362338288858151811061033557610334611e2e565b5b602002602001015173ffffffffffffffffffffffffffffffffffffffff16610b309092919063ffffffff16565b600085600301600088858151811061037d5761037c611e2e565b5b602002602001015173ffffffffffffffffffffffffffffffffffffffff1673ffffffffffffffffffffffffffffffffffffffff1681526020019081526020016000206040518060400160405290816000820154815260200160018201548152505090508181602001516103f09190611e8c565b86600301600089868151811061040957610408611e2e565b5b602002602001015173ffffffffffffffffffffffffffffffffffffffff1673ffffffffffffffffffffffffffffffffffffffff1681526020019081526020016000206001018190555050508060010190506101da565b5050505050565b6000610470610ac6565b905060008251905060005b8181101561067b57600083600301600086848151811061049e5761049d611e2e565b5b602002602001015173ffffffffffffffffffffffffffffffffffffffff1673ffffffffffffffffffffffffffffffffffffffff168152602001908152602001600020604051806040016040529081600082015481526020016001820154815250509050600085838151811061051657610515611e2e565b5b602002602001015173ffffffffffffffffffffffffffffffffffffffff166370a08231306040518263ffffffff1660e01b81526004016105569190611c01565b602060405180830381865afa158015610573573d6000803e3d6000fd5b505050506040513d601f19601f820116820180604052508101906105979190611ed5565b90506000826020015183600001516105af9190611f02565b90508082111561066d57600081836105c79190611f02565b905060005481111561066b576105f8878987815181106105ea576105e9611e2e565b5b602002602001015183610baf565b8084600001516106089190611e8c565b8760030160008a888151811061062157610620611e2e565b5b602002602001015173ffffffffffffffffffffffffffffffffffffffff1673ffffffffffffffffffffffffffffffffffffffff168152602001908152602001600020600001819055505b505b50505080600101905061047b565b50505050565b600061068b610dbc565b90506106956107a9565b73ffffffffffffffffffffffffffffffffffffffff168173ffffffffffffffffffffffffffffffffffffffff161461070457806040517f068ca9d80000000000000000000000000000000000000000000000000000000081526004016106fb9190611c01565b60405180910390fd5b60008273ffffffffffffffffffffffffffffffffffffffff163b0361076057816040517fc2f31e5e0000000000000000000000000000000000000000000000000000000081526004016107579190611c01565b60405180910390fd5b61076982610dc4565b5050565b600080610778610e4e565b90508060000160149054906101000a900460ff1661079a57600060e01b6107a3565b638fb3603760e01b5b91505090565b6000806107b4610e4e565b90508060000160009054906101000a900473ffffffffffffffffffffffffffffffffffffffff1691505090565b60006107eb610e76565b905060008160000160089054906101000a900460ff1615905060008260000160009054906101000a900467ffffffffffffffff1690506000808267ffffffffffffffff161480156108395750825b9050600060018367ffffffffffffffff1614801561086e575060003073ffffffffffffffffffffffffffffffffffffffff163b145b90508115801561087c575080155b156108b3576040517ff92ee8a900000000000000000000000000000000000000000000000000000000815260040160405180910390fd5b60018560000160006101000a81548167ffffffffffffffff021916908367ffffffffffffffff16021790555083156109035760018560000160086101000a81548160ff0219169083151502179055505b61090c86610e9e565b83156109685760008560000160086101000a81548160ff0219169083151502179055507fc7f505b2f371ae2175ee4913f4499e1f2633a7b5936321eed1cdaeb6115181d2600160405161095f9190611f8f565b60405180910390a15b505050505050565b61098861097b610dbc565b610983610eb2565b610ebf565b6000610992610ac6565b905061099d81611012565b60008351905060008114806109b3575082518114155b156109ea576040517fa8820a1200000000000000000000000000000000000000000000000000000000815260040160405180910390fd5b60005b81811015610a4d57610a41858281518110610a0b57610a0a611e2e565b5b6020026020010151858381518110610a2657610a25611e2e565b5b6020026020010151856000016110899092919063ffffffff16565b508060010190506109ed565b507fd9f6de9f7cd1fbeca7615faf2106f27e98fa0685f40af0c543c01ac4e5dde8c28484604051610a7f929190612126565b60405180910390a150505050565b6040518060400160405280600581526020017f312e302e3000000000000000000000000000000000000000000000000000000081525081565b60007f09d69abd7689fd56666fe6869d931c23d02c3338dae383978413185cacb0a400905090565b600080600080610b1a866000018673ffffffffffffffffffffffffffffffffffffffff1660001b6110be565b91509150818160001c9350935050509250929050565b610baa838473ffffffffffffffffffffffffffffffffffffffff1663a9059cbb8585604051602401610b6392919061216c565b604051602081830303815290604052915060e01b6020820180517bffffffffffffffffffffffffffffffffffffffffffffffffffffffff838183161783525050505061110d565b505050565b6000610bbd846000016111a4565b905060008151905060008103610bff576040517f435d4ef000000000000000000000000000000000000000000000000000000000815260040160405180910390fd5b60005b81811015610db4576000610c3c848381518110610c2257610c21611e2e565b5b6020026020010151886000016111c590919063ffffffff16565b90506000670de0b6b3a76400008287610c559190612195565b610c5f9190612206565b905060008860040160008973ffffffffffffffffffffffffffffffffffffffff1673ffffffffffffffffffffffffffffffffffffffff1681526020019081526020016000206000878681518110610cb957610cb8611e2e565b5b602002602001015173ffffffffffffffffffffffffffffffffffffffff1673ffffffffffffffffffffffffffffffffffffffff1681526020019081526020016000205490508181610d0a9190611e8c565b8960040160008a73ffffffffffffffffffffffffffffffffffffffff1673ffffffffffffffffffffffffffffffffffffffff1681526020019081526020016000206000888781518110610d6057610d5f611e2e565b5b602002602001015173ffffffffffffffffffffffffffffffffffffffff1673ffffffffffffffffffffffffffffffffffffffff16815260200190815260200160002081905550505050806001019050610c02565b505050505050565b600033905090565b6000610dce610e4e565b9050818160000160006101000a81548173ffffffffffffffffffffffffffffffffffffffff021916908373ffffffffffffffffffffffffffffffffffffffff1602179055507f2f658b440c35314f52658ea8a740e05b284cdc84dc9ae01e891f21b8933e7cad82604051610e429190611c01565b60405180910390a15050565b60007ff3177357ab46d8af007ab3fdb9af81da189e1068fefdc0073dca88a2cab40a00905090565b60007ff0c57e16840df040f15088dc2f81fe391c3923bec73e23a9662efc9c229c6a00905090565b610ea66111f8565b610eaf81611238565b50565b3660008036915091509091565b6000610ec9610e4e565b9050600080610eff610ed96107a9565b87308888600090600492610eef93929190612241565b90610efa9190612294565b61124c565b915091508161100a5760008163ffffffff161115610fcc5760018360000160146101000a81548160ff021916908315150217905550610f3c6107a9565b73ffffffffffffffffffffffffffffffffffffffff166394c7d7ee8787876040518463ffffffff1660e01b8152600401610f7893929190612340565b600060405180830381600087803b158015610f9257600080fd5b505af1158015610fa6573d6000803e3d6000fd5b5050505060008360000160146101000a81548160ff021916908315150217905550611009565b856040517f068ca9d80000000000000000000000000000000000000000000000000000000081526004016110009190611c01565b60405180910390fd5b5b505050505050565b600061102082600001611372565b90506000811115611085576000611039836000016111a4565b905060005b828110156110825761107682828151811061105c5761105b611e2e565b5b60200260200101518560000161138790919063ffffffff16565b5080600101905061103e565b50505b5050565b60006110b5846000018473ffffffffffffffffffffffffffffffffffffffff1660001b8460001b6113b7565b90509392505050565b60008060008460020160008581526020019081526020016000205490506000801b81036110fd576110ef85856113f2565b6000801b9250925050611106565b60018192509250505b9250929050565b6000611138828473ffffffffffffffffffffffffffffffffffffffff1661141290919063ffffffff16565b9050600081511415801561115d57508080602001905181019061115b91906123aa565b155b1561119f57826040517f5274afe70000000000000000000000000000000000000000000000000000000081526004016111969190611c01565b60405180910390fd5b505050565b606060006111b483600001611428565b905060608190508092505050919050565b60006111ed836000018373ffffffffffffffffffffffffffffffffffffffff1660001b61143d565b60001c905092915050565b6112006114bd565b611236576040517fd7e6bcf800000000000000000000000000000000000000000000000000000000815260040160405180910390fd5b565b6112406111f8565b61124981610dc4565b50565b6000806000808773ffffffffffffffffffffffffffffffffffffffff1687878760405160240161127e939291906123d7565b60405160208183030381529060405263b700961360e01b6020820180517bffffffffffffffffffffffffffffffffffffffffffffffffffffffff83818316178352505050506040516112d09190612455565b600060405180830381855afa9150503d806000811461130b576040519150601f19603f3d011682016040523d82523d6000602084013e611310565b606091505b50915091508115611367576040815110611345578080602001905181019061133891906124a8565b8094508195505050611366565b6020815110611365578080602001905181019061136291906123aa565b93505b5b5b505094509492505050565b6000611380826000016114dd565b9050919050565b60006113af836000018373ffffffffffffffffffffffffffffffffffffffff1660001b6114f2565b905092915050565b600081846002016000858152602001908152602001600020819055506113e9838560000161152b90919063ffffffff16565b90509392505050565b600061140a828460000161154290919063ffffffff16565b905092915050565b606061142083836000611559565b905092915050565b606061143682600001611626565b9050919050565b6000808360020160008481526020019081526020016000205490506000801b81148015611471575061146f84846113f2565b155b156114b357826040517f02b566860000000000000000000000000000000000000000000000000000000081526004016114aa9190612501565b60405180910390fd5b8091505092915050565b60006114c7610e76565b60000160089054906101000a900460ff16905090565b60006114eb82600001611647565b9050919050565b600082600201600083815260200190815260200160002060009055611523828460000161165c90919063ffffffff16565b905092915050565b600061153a8360000183611673565b905092915050565b600061155183600001836116e3565b905092915050565b6060814710156115a057306040517fcd7860590000000000000000000000000000000000000000000000000000000081526004016115979190611c01565b60405180910390fd5b6000808573ffffffffffffffffffffffffffffffffffffffff1684866040516115c99190612455565b60006040518083038185875af1925050503d8060008114611606576040519150601f19603f3d011682016040523d82523d6000602084013e61160b565b606091505b509150915061161b868383611706565b925050509392505050565b6060600061163683600001611795565b905060608190508092505050919050565b6000611655826000016117f1565b9050919050565b600061166b8360000183611802565b905092915050565b600061167f83836116e3565b6116d85782600001829080600181540180825580915050600190039060005260206000200160009091909190915055826000018054905083600101600084815260200190815260200160002081905550600190506116dd565b600090505b92915050565b600080836001016000848152602001908152602001600020541415905092915050565b60608261171b5761171682611916565b61178d565b60008251148015611743575060008473ffffffffffffffffffffffffffffffffffffffff163b145b1561178557836040517f9996b31500000000000000000000000000000000000000000000000000000000815260040161177c9190611c01565b60405180910390fd5b81905061178e565b5b9392505050565b6060816000018054806020026020016040519081016040528092919081815260200182805480156117e557602002820191906000526020600020905b8154815260200190600101908083116117d1575b50505050509050919050565b600081600001805490509050919050565b6000808360010160008481526020019081526020016000205490506000811461190a5760006001826118349190611f02565b905060006001866000018054905061184c9190611f02565b90508082146118bb57600086600001828154811061186d5761186c611e2e565b5b906000526020600020015490508087600001848154811061189157611890611e2e565b5b90600052602060002001819055508387600101600083815260200190815260200160002081905550505b856000018054806118cf576118ce61251c565b5b600190038181906000526020600020016000905590558560010160008681526020019081526020016000206000905560019350505050611910565b60009150505b92915050565b6000815111156119295780518082602001fd5b6040517f1425ea4200000000000000000000000000000000000000000000000000000000815260040160405180910390fd5b6000604051905090565b600080fd5b600080fd5b600080fd5b6000601f19601f8301169050919050565b7f4e487b7100000000000000000000000000000000000000000000000000000000600052604160045260246000fd5b6119bd82611974565b810181811067ffffffffffffffff821117156119dc576119db611985565b5b80604052505050565b60006119ef61195b565b90506119fb82826119b4565b919050565b600067ffffffffffffffff821115611a1b57611a1a611985565b5b602082029050602081019050919050565b600080fd5b600073ffffffffffffffffffffffffffffffffffffffff82169050919050565b6000611a5c82611a31565b9050919050565b611a6c81611a51565b8114611a7757600080fd5b50565b600081359050611a8981611a63565b92915050565b6000611aa2611a9d84611a00565b6119e5565b90508083825260208201905060208402830185811115611ac557611ac4611a2c565b5b835b81811015611aee5780611ada8882611a7a565b845260208401935050602081019050611ac7565b5050509392505050565b600082601f830112611b0d57611b0c61196f565b5b8135611b1d848260208601611a8f565b91505092915050565b600060208284031215611b3c57611b3b611965565b5b600082013567ffffffffffffffff811115611b5a57611b5961196a565b5b611b6684828501611af8565b91505092915050565b600060208284031215611b8557611b84611965565b5b6000611b9384828501611a7a565b91505092915050565b60007fffffffff0000000000000000000000000000000000000000000000000000000082169050919050565b611bd181611b9c565b82525050565b6000602082019050611bec6000830184611bc8565b92915050565b611bfb81611a51565b82525050565b6000602082019050611c166000830184611bf2565b92915050565b600067ffffffffffffffff821115611c3757611c36611985565b5b602082029050602081019050919050565b6000819050919050565b611c5b81611c48565b8114611c6657600080fd5b50565b600081359050611c7881611c52565b92915050565b6000611c91611c8c84611c1c565b6119e5565b90508083825260208201905060208402830185811115611cb457611cb3611a2c565b5b835b81811015611cdd5780611cc98882611c69565b845260208401935050602081019050611cb6565b5050509392505050565b600082601f830112611cfc57611cfb61196f565b5b8135611d0c848260208601611c7e565b91505092915050565b60008060408385031215611d2c57611d2b611965565b5b600083013567ffffffffffffffff811115611d4a57611d4961196a565b5b611d5685828601611af8565b925050602083013567ffffffffffffffff811115611d7757611d7661196a565b5b611d8385828601611ce7565b9150509250929050565b600081519050919050565b600082825260208201905092915050565b60005b83811015611dc7578082015181840152602081019050611dac565b60008484015250505050565b6000611dde82611d8d565b611de88185611d98565b9350611df8818560208601611da9565b611e0181611974565b840191505092915050565b60006020820190508181036000830152611e268184611dd3565b905092915050565b7f4e487b7100000000000000000000000000000000000000000000000000000000600052603260045260246000fd5b7f4e487b7100000000000000000000000000000000000000000000000000000000600052601160045260246000fd5b6000611e9782611c48565b9150611ea283611c48565b9250828201905080821115611eba57611eb9611e5d565b5b92915050565b600081519050611ecf81611c52565b92915050565b600060208284031215611eeb57611eea611965565b5b6000611ef984828501611ec0565b91505092915050565b6000611f0d82611c48565b9150611f1883611c48565b9250828203905081811115611f3057611f2f611e5d565b5b92915050565b6000819050919050565b600067ffffffffffffffff82169050919050565b6000819050919050565b6000611f79611f74611f6f84611f36565b611f54565b611f40565b9050919050565b611f8981611f5e565b82525050565b6000602082019050611fa46000830184611f80565b92915050565b600081519050919050565b600082825260208201905092915050565b6000819050602082019050919050565b611fdf81611a51565b82525050565b6000611ff18383611fd6565b60208301905092915050565b6000602082019050919050565b600061201582611faa565b61201f8185611fb5565b935061202a83611fc6565b8060005b8381101561205b5781516120428882611fe5565b975061204d83611ffd565b92505060018101905061202e565b5085935050505092915050565b600081519050919050565b600082825260208201905092915050565b6000819050602082019050919050565b61209d81611c48565b82525050565b60006120af8383612094565b60208301905092915050565b6000602082019050919050565b60006120d382612068565b6120dd8185612073565b93506120e883612084565b8060005b8381101561211957815161210088826120a3565b975061210b836120bb565b9250506001810190506120ec565b5085935050505092915050565b60006040820190508181036000830152612140818561200a565b9050818103602083015261215481846120c8565b90509392505050565b61216681611c48565b82525050565b60006040820190506121816000830185611bf2565b61218e602083018461215d565b9392505050565b60006121a082611c48565b91506121ab83611c48565b92508282026121b981611c48565b915082820484148315176121d0576121cf611e5d565b5b5092915050565b7f4e487b7100000000000000000000000000000000000000000000000000000000600052601260045260246000fd5b600061221182611c48565b915061221c83611c48565b92508261222c5761222b6121d7565b5b828204905092915050565b600080fd5b600080fd5b6000808585111561225557612254612237565b5b838611156122665761226561223c565b5b6001850283019150848603905094509492505050565b600082905092915050565b600082821b905092915050565b60006122a0838361227c565b826122ab8135611b9c565b925060048210156122eb576122e67fffffffff0000000000000000000000000000000000000000000000000000000083600403600802612287565b831692505b505092915050565b600082825260208201905092915050565b82818337600083830152505050565b600061231f83856122f3565b935061232c838584612304565b61233583611974565b840190509392505050565b60006040820190506123556000830186611bf2565b8181036020830152612368818486612313565b9050949350505050565b60008115159050919050565b61238781612372565b811461239257600080fd5b50565b6000815190506123a48161237e565b92915050565b6000602082840312156123c0576123bf611965565b5b60006123ce84828501612395565b91505092915050565b60006060820190506123ec6000830186611bf2565b6123f96020830185611bf2565b6124066040830184611bc8565b949350505050565b600081519050919050565b600081905092915050565b600061242f8261240e565b6124398185612419565b9350612449818560208601611da9565b80840191505092915050565b60006124618284612424565b915081905092915050565b600063ffffffff82169050919050565b6124858161246c565b811461249057600080fd5b50565b6000815190506124a28161247c565b92915050565b600080604083850312156124bf576124be611965565b5b60006124cd85828601612395565b92505060206124de85828601612493565b9150509250929050565b6000819050919050565b6124fb816124e8565b82525050565b600060208201905061251660008301846124f2565b92915050565b7f4e487b7100000000000000000000000000000000000000000000000000000000600052603160045260246000fdfea26469706673582212208f0adc9aefe8e529bbd00c3171ca8cc3edf3cb5402c0d9167b03b0e9af1e8aa064736f6c63430008180033",
  "linkReferences": {},
  "deployedLinkReferences": {}
}